:020000040800F2
:10000000005000209918000835180008371800081B
:10001000391800083B1800083D18000800000000CF
:100020000000000000000000000000003F18000871
:100030004118000800000000431800084518000897
:10004000E1180008E1180008E1180008E1180008AC
:10005000E1180008E1180008E1180008E11800089C
:10006000E1180008E1180008E1180008E11800088C
:10007000E1180008E1180008E1180008E11800087C
:10008000E1180008E1180008E1180008E11800086C
:10009000E1180008E1180008E1180008E11800085C
:1000A000E1180008E1180008E1180008E11800084C
:1000B000E1180008E1180008E1180008E11800083C
:1000C000E1180008E1180008E1180008E11800082C
:1000D000E1180008E1180008E1180008E11800081C
:1000E000E1180008E1180008E1180008000000000D
:1000F0000000000000000000000000000000000000
:0C01000000000000000000005FF808F1A3
:10010C0010B5054C237833B9044B13B10448AFF345
:10011C0000800123237010BD24000020000000008B
:10012C003C19000808B5034B1BB103490348AFF356
:10013C00008008BD00000000280000203C190008C9
:10014C0010B504460E4B18784FF47A73B3FBF0F3EA
:10015C000C4A1068B0FBF3F000F094F868B90F2C5F
:10016C0001D901200AE0002221464FF0FF3000F0B7
:10017C0055F8034B5C60002000E0012010BD00BF6F
:10018C00000000202000002008B5074A136843F047
:10019C0010031360032000F02FF80020FFF7D0FFAE
:1001AC0001F0EEFA002008BD00200240034A11685D
:1001BC00034B1B780B441360704700BF48040020AE
:1001CC0000000020014B1868704700BF4804002055
:1001DC0038B50446FFF7F6FF0546B4F1FF3F02D0F1
:1001EC00044B1B781C44FFF7EDFF401BA042FAD3D5
:1001FC0038BD00BF00000020074AD36823F4E06339
:10020C001B041B0C000200F4E060034343F0BF63CB
:10021C0043F40033D360704700ED00E030B4174B6B
:10022C00DB68C3F30223C3F10704042C28BF0424A6
:10023C001D1D062D18D9033B4FF0FF3505FA04F4AC
:10024C0021EA0401994005FA03F322EA0303194356
:10025C0000280BDB0901C9B200F1604000F56140D8
:10026C0080F8001330BC70470023E5E700F00F0066
:10027C000901C9B2024B1954F4E700BF00ED00E0CC
:10028C0014ED00E00138B0F1807F0AD2064B5860C3
:10029C00064AF02182F823100020986007221A6089
:1002AC0070470120704700BF10E000E000ED00E057
:1002BC00F0B482B000252C46A3E07F4FBB4210D097
:1002CC0007D97E4FBB420CD007F58037BB4208D014
:1002DC0013E0A7F58017BB4203D007F57027BB428C
:1002EC0007D18B68002B58D0012B51D042610825C7
:1002FC0003E0A7F58017BB42F3D0FF2E4FD88446FE
:10030C00FF2E4FD8A200DCF800300F27974023EACD
:10031C00070305FA02F21343CCF800304B6813F0D4
:10032C00805F6DD0664B9A6942F001029A619B69BD
:10033C0003F001030193019BA208971C614B53F836
:10034C00273004F00307BF004FF00F0C0CFA07FC2A
:10035C0023EA0C0C5C4B98422AD003F5806398423C
:10036C0000F08A8003F58063984200F0878003F5E3
:10037C00806398421AD004231BE0CD68BDE7CD689A
:10038C000435BAE7CD680835B7E7CD680C35B4E766
:10039C0002610825B1E70025AFE70425ADE700F1C0
:1003AC00040CADE7A4F108029200ACE7032300E0D3
:1003BC000023BB4043EA0C030232424F47F8223081
:1003CC004B6813F4803F5BD0404A1368334313608F
:1003DC004B6813F4003F59D03C4A53683343536085
:1003EC004B6813F4801F57D0384A9368334393609B
:1003FC004B6813F4001F55D0344AD3681E43D660A3
:10040C0001340F2C54D80122A2400B6803EA0206D7
:10041C0032EA0303F4D14B68122B3FF64EAF122B8A
:10042C003FF66BAF01A757F823F000BFEF020008AF
:10043C008703000891030008A303000807030008C2
:10044C000703000807030008070300080703000858
:10045C000703000807030008070300080703000848
:10046C000703000807030008070300080703000838
:10047C008B0300089703000801239AE7022398E7EF
:10048C00124A136823EA06031360A1E70F4A536864
:10049C0023EA06035360A3E70C4A936823EA060396
:1004AC009360A5E7094AD36823EA0606D660A7E756
:1004BC0002B0F0BC704700BF0000221000003110E9
:1004CC0000100240000001400008014000040140FF
:1004DC0003685A6912F4806F01D1002070476FF4E1
:1004EC0080625A610423036400230363202280F892
:1004FC003D2080F83C30012070472DE9F041074643
:10050C000D4690461E461EE02EB1FFF75BFE069B85
:10051C00C01AB04217D900233B63202287F83D2034
:10052C0087F83E3087F83C3003201AE03B689C6922
:10053C0025EA0404A4B2B4FA84F46409A0450FD1EA
:10054C00B6F1FF3FE0D1C5F30743012BEED13B6879
:10055C005C6925EA0404A4B2B4FA84F46409EDE7F6
:10056C000020BDE8F0812DE9F04105460E46174606
:10057C00984633E01A6842F400721A602B686FF4E4
:10058C0080625A6104232B6400232B63202285F89C
:10059C003D2085F83C3001202EE02FB1FFF712FEF4
:1005AC00A0EB0800B84219D900232B63202285F850
:1005BC003D2085F83C3003201EE02B689C6926EA20
:1005CC000404A4B2003C18BF0124A4B12B685A69DE
:1005DC0012F4806FCED1B7F1FF3FDED1C6F30743E3
:1005EC00012BEAD12B685C6926EA0404A4B2003C16
:1005FC0018BF0124E9E70020BDE8F081F0B583B015
:10060C0004460D4616461F46C36A042B0DD0012B1B
:10061C000BD013F5803F08D0036B122B0AD1026864
:10062C00136843F48073136004E02268136843F486
:10063C00807313600097334600224FF0011120465F
:10064C00FFF75BFF70BB2369B3F5804F0FD12368B5
:10065C0005F0FE051D613B46324614492046FFF766
:10066C0082FF00B3236C042B1AD003201BE0EB1188
:10067C00226803F0060343F0F00313613B46324655
:10068C000B492046FFF76FFF30B1236C042B01D0D0
:10069C00032008E0012006E02368EDB21D61DAE7D3
:1006AC00012000E0032003B0F0BD00BF02000100F8
:1006BC000800010070B504460D46164623685B69B8
:1006CC0013F0800F19D12046FFF702FFB8B9B5F12E
:1006DC00FF3FF3D025B1FFF775FD801BA842EDD984
:1006EC00236C43F02003236400232363202284F82B
:1006FC003D2084F83C30032000E0002070BD012038
:10070C00FCE770B504460D46164623685B6913F08A
:10071C00040F19D12046FFF7DBFEB8B9B5F1FF3F46
:10072C00F3D025B1FFF74EFD801BA842EDD9236C09
:10073C0043F02003236400232363202284F83D200C
:10074C0084F83C30032000E0002070BD0120FCE761
:10075C00002800F0A58038B5044690F83D30002BF9
:10076C0050D0242384F83D302268136823F0010311
:10077C00136000F043FD62684B4B9A4247D84B4BD9
:10078C0098428CBF00230123002B40F08B80484BF8
:10079C00A3FB00239B0C226853606168424A914280
:1007AC003BD801332268136261683F4B99423ED8B3
:1007BC00431E4900B3FBF1F3013340F6FC721342C4
:1007CC006AD0C3F30B032268D361E369216A226800
:1007DC000B4313602369E16822680B4393606369E0
:1007EC00A16922680B43D3602268136843F00103AC
:1007FC00136000202064202384F83D30206384F8AB
:10080C003E0038BD80F83C3000F0DCFFA9E7294BF6
:10081C0098428CBF00230123B6E74FF4967202FB7B
:10082C0003F3254AA2FB03239B090133BAE7A36810
:10083C00BBB9421E01EB4105B2FBF5F20132C2F32A
:10084C000B02B2FA82F2520942BBC3B9013801EB76
:10085C004103B0FBF3F30133C3F30B0343F4004345
:10086C00B1E7421E01EB810505EB8505B2FBF5F204
:10087C000132C2F30B02B2FA82F25209E4E70138F8
:10088C0001EB810303EB8303B0FBF3F30133C3F3FD
:10089C000B0343F4404396E7042394E7012392E7C8
:1008AC00012070470120ACE7A08601007F841E0068
:1008BC0083DE1B43FF083D00D34D62102DE9F0434E
:1008CC0085B004460F46914698460C9EFFF77AFC7D
:1008DC00054694F83D00C0B2202804D002273846C3
:1008EC0005B0BDE8F0830095192301225549204637
:1008FC00FFF703FE002840F0A08094F83C30012B59
:10090C0000F09D80012384F83C3023681A6812F0B3
:10091C00010F03D11A6842F001021A6022681368B1
:10092C0023F400631360212384F83D30102384F8F2
:10093C003E3000232364C4F82490A4F82A80A3F545
:10094C008033E362638D23852B463246394620463D
:10095C00FFF754FE074660B1236C042B04D0002330
:10096C0084F83C300327BAE7002384F83C30012795
:10097C00B5E70023039323685A6903929B69039399
:10098C00039B12E0236C042B01D00327A7E72268FA
:10099C00136843F4007313600127A0E72A4631461D
:1009AC002046FFF7AEFE00282DD1238D002B36D02C
:1009BC002A4631462046FFF77DFE0028E2D1636AC5
:1009CC005A1C626222681B781361638D9BB2013BD7
:1009DC009BB26385238D013B9BB2238522685169B1
:1009EC0011F0040FDAD0002BD8D0636A591C616265
:1009FC001B781361638D9BB2013B9BB26385238D86
:100A0C00013B2385CAE7236C042B01D0032766E73F
:100A1C002268136843F40073136001275FE72268B0
:100A2C00136843F400731360202384F83D300023D3
:100A3C0084F83E3084F83C3051E702274FE7022718
:100A4C004DE700BF020010002DE9F04F85B00646BF
:100A5C008A4693461F46FFF7B5FB96F83D30DBB24E
:100A6C00202B03D0022005B0BDE8F08F804600900B
:100A7C001923012258493046FFF73FFD002840F06A
:100A8C00A08096F83C30012B00F09D80012386F865
:100A9C003C3033681A6812F0010F03D11A6842F027
:100AAC0001021A603268136823F400631360242374
:100ABC0086F83D3000233364A3F58033F3624FF0A6
:100ACC00010938E0A02386F83D3033685C69C4F333
:100ADC0040045D69C5F3802596F83D30DBB25CB906
:100AEC0055B9A02B08D0002FECD0FFF76BFBA0EB77
:100AFC000800B842E9D9E5E7202386F83D30336891
:100B0C005A6912F0020F38D11A6842F400721A6056
:100B1C0033686FF480625A61CDF80080192301228A
:100B2C002D493046FFF7E9FC002852D109F10103A9
:100B3C00D9453ED299463268136843F480731360EA
:100B4C00CDF800803B4600224FF001113046FFF7F4
:100B5C00D4FC002839D133680AF0FE021A61FFF781
:100B6C0031FB804633685C69C4F340045D69C5F3AE
:100B7C00802596F83D30DBB2B1E71A6842F400727A
:100B8C001A600023039333685A6903929B69039399
:100B9C00039BCDF80080192301220F493046FFF743
:100BAC00ACFCA0B9202386F83D30002386F83C30FD
:100BBC0059E7202386F83D30002386F83C3001208D
:100BCC0051E702204FE702204DE703204BE70320BB
:100BDC0049E7032047E700BF0200100082B0084B32
:100BEC001B68084AA2FB03235B0A00FB03F3019377
:100BFC0000BF019B5A1E0192002BF9D102B0704725
:100C0C0020000020D34D621070B582B004460368FA
:100C1C0013F0010F2CD0AB4B5B6803F00C03042BCF
:100C2C001DD0A84B5B6803F00C03082B12D0636833
:100C3C00B3F5803F41D0002B55D103F1804303F530
:100C4C0004331A6822F480321A601A6822F4802263
:100C5C001A6037E09B4B5B6813F4803FE7D0994BED
:100C6C001B6813F4003F03D06368002B00F0AE81C7
:100C7C00236813F0020F75D0924B5B6813F00C0FC6
:100C8C005FD0904B5B6803F00C03082B54D02369A6
:100C9C00002B00F089808C4B01221A60FFF792FA2E
:100CAC000546884B1B6813F0020F74D1FFF78AFAC4
:100CBC00401B0228F5D903208DE1824A136843F4C6
:100CCC0080331360636843B3FFF77CFA05467D4BB2
:100CDC001B6813F4003FCBD1FFF774FA401B642858
:100CEC00F5D9032077E1B3F5A02F09D0754B1A681D
:100CFC0022F480321A601A6822F480221A60E1E72A
:100D0C0003F18043A3F53C331A6842F480221A6045
:100D1C001A6842F480321A60D4E7FFF753FA05469A
:100D2C00684B1B6813F4003FA2D0FFF74BFA401B33
:100D3C006428F5D903204EE1624B5B6813F4803FC5
:100D4C00A5D1604B1B6813F0020F03D02369012B54
:100D5C0040F03E815B4A136823F0F803616943EA73
:100D6C00C1031360236813F0080F32D0A369002B62
:100D7C0045D0564B01221A60FFF724FA0546514B19
:100D8C005B6A13F0020F21D1FFF71CFA401B0228FB
:100D9C00F5D903201FE14B4A136823F0F80361696E
:100DAC0043EAC1031360DDE7474B00221A60FFF7EB
:100DBC0009FA0546434B1B6813F0020FD2D0FFF71C
:100DCC0001FA401B0228F5D9032004E10120FFF7AA
:100DDC0005FF236813F0040F00F09880394BDB6992
:100DEC0013F0805F1DD1374BDA6942F08052DA6123
:100DFC00DB6903F080530193019B012512E0334B17
:100E0C0000221A60FFF7DEF905462E4B5B6A13F0E1
:100E1C00020FDED0FFF7D6F9401B0228F5D90320CC
:100E2C00D9E000252A4B1B6813F4807F11D0E368AE
:100E3C00012B22D0002B38D103F1804303F504336E
:100E4C001A6A22F001021A621A6A22F004021A6269
:100E5C0018E01F4A136843F480731360FFF7B2F96C
:100E6C0006461B4B1B6813F4807FE0D1FFF7AAF9F1
:100E7C00801B6428F5D90320ADE0124A136A43F0B5
:100E8C0001031362E3687BB3FFF79CF906460D4B35
:100E9C001B6A13F0020F38D1FFF794F9801B41F253
:100EAC0088339842F3D9032095E0052B12D0054BDB
:100EBC001A6A22F001021A621A6A22F004021A62F9
:100ECC00E0E700BF001002400000424280044242B2
:100EDC0000700040424B1A6A42F004021A621A6A0D
:100EEC0042F001021A62CDE7FFF76CF906463C4B63
:100EFC001B6A13F0020F08D0FFF764F9801B41F254
:100F0C0088339842F3D9032065E0E5B9E369002BF7
:100F1C0060D0334A526802F00C02082A5DD0022BD2
:100F2C0017D0304B00221A60FFF74CF904462C4BBB
:100F3C001B6813F0007F47D0FFF744F9001B022811
:100F4C00F5D9032047E0264AD36923F08053D361B7
:100F5C00DCE7244B00221A60FFF734F90546204BDE
:100F6C001B6813F0007F06D0FFF72CF9401B0228FA
:100F7C00F5D903202FE0236AB3F5803F1AD0184926
:100F8C004B6823F47413226A606A024313434B6068
:100F9C00144B01221A60FFF715F90446104B1B681D
:100FAC0013F0007F0ED1FFF70DF9001B0228F5D9C5
:100FBC00032010E00A4A536823F40033A1680B4362
:100FCC005360DCE7002006E0002004E0012002E092
:100FDC00012000E0002002B070BD0120FBE700BF43
:100FEC00001002406000424286B0164B0FCB0DF150
:100FFC00180C0CE90F0040F20123ADF80430124B31
:10100C005B6803F00C02082A02D0104806B0704747
:10101C00C3F38342624412F8102C13F4803F0CD0BB
:10102C00094B5B68C3F34043634413F8143C074813
:10103C0000FB02F0B0FBF3F0E8E7054800FB02F020
:10104C00E4E700BF804100080010024000127A0063
:10105C0000093D0070B504460D46614B1B6803F05A
:10106C0007038B420BD25E4A136823F007030B4332
:10107C001360136803F007038B4240F0AB802368C6
:10108C0013F0020F17D013F0040F04D0554A536815
:10109C0043F4E0635360236813F0080F04D0514A03
:1010AC00536843F4605353604E4A536823F0F00383
:1010BC00A1680B435360236813F0010F52D063688F
:1010CC00012B23D0022B28D0464A126812F0020FB3
:1010DC0000F0828043494A6822F0030213434B60BC
:1010EC00FFF770F806466368012B1DD0022B2AD03F
:1010FC003C4B5B6813F00C0F34D0FFF763F8831B89
:10110C0041F288329342F3D9032062E0354A1268E7
:10111C0012F4003FDED101205BE0324A126812F07B
:10112C00007FD7D1012054E02E4B5B6803F00C03F9
:10113C00042B17D0FFF746F8831B41F288329342F9
:10114C00F2D9032045E0274B5B6803F00C03082B16
:10115C0008D0FFF737F8801B41F288339842F2D958
:10116C00032036E01E4B1B6803F00703AB420AD981
:10117C001B4A136823F007032B431360136803F017
:10118C000703AB422AD1236813F0040F06D0154A8B
:10119C00536823F4E063E1680B435360236813F056
:1011AC00080F07D00F4A536823F46053216943EAB0
:1011BC00C1035360FFF718FF0A4B5B68C3F30313BB
:1011CC00094AD35CD840094B18600020FEF7B8FFE1
:1011DC00002070BD0120FCE70120FAE70120F8E7B0
:1011EC00002002400010024068410008200000204E
:1011FC00014B1868704700BF2000002008B5FFF7AE
:10120C00F7FF044B5B68C3F30223034AD35CD8405B
:10121C0008BD00BF001002407841000884B00F4B9D
:10122C009A6942F020029A619A6902F020020192B6
:10123C00019A9A6942F004029A619A6902F00402D6
:10124C000292029A9A6942F008029A619B6903F031
:10125C0008030393039B04B0704700BF00100240C7
:10126C0008B50948094B0360094B436000238360B0
:10127C00C3604FF48042026143618361C3610362C6
:10128C00FFF766FA08BD00BF4C0400200054004074
:10129C00801A060030B591B0002409940B940C947C
:1012AC0001940294039404940594012206924FF441
:1012BC008033079308940A9202250D950E934FF4F0
:1012CC00E0130F9306A8FFF79FFC0F2301930295E1
:1012DC0003944FF4806304930594294601A8FFF707
:1012EC00B9FE11B030BD000008B5FEF74DFFFFF799
:1012FC00D1FFFFF793FFFFF7B3FF00F08DF900214B
:10130C00084600F067F8154C01222146144800F0FD
:10131C00B5F81E210A2000F05DF801222146114883
:10132C0000F0ACF800F04CF94FF4FA60FEF750FF07
:10133C000721002000F0E4F84FF4FA60FEF748FFB4
:10134C000721002000F008F94FF4FA60FEF740FF87
:10135C0000F02EF900F058F9D1E700BF1000002082
:10136C0094410008A041000808B530B900214FF4A1
:10137C008062034800F0D4FA08BDFF21F7E700BFF4
:10138C00480000207F2816D83F2914D8104B1B7911
:10139C0013B1B2FA82F25209012A0DD0CB0800EB3C
:1013AC00C31001F0070101228A40094B1844017A4D
:1013BC0021EA020101727047CB0800EBC31001F067
:1013CC0007018A40024B1844017A1143017270479D
:1013DC0040000020014B18805980704740000020CD
:1013EC002DE9F8439046244B1B880A7813447F2B35
:1013FC003EDC81460D46204B5B884A7813443F2BDC
:10140C0038DC002620E01C4B1888598831442044D5
:10141C00B8FA88F2520989B280B2FFF7B3FF0134EF
:10142C002B78A3420FD907FA04F313F4004FEAD038
:10143C00114B1888598831442044424689B280B2F5
:10144C00FFF7A0FFEBE701366A78B24208D969686A
:10145C00A9F1200302FB036331F813700024DFE7CA
:10146C002B78054A11880B4413804846BDE8F88355
:10147C000020FBE70020F9E74000002070B504468F
:10148C000E461546207848B12A463146FFF7A8FF8C
:10149C0003462078834201D10134F3E770BD00008C
:1014AC0030B5C3B08DF8081000218CB29C4205D227
:1014BC004C1C555C02A90D55E1B2F6E701330A222A
:1014CC0000929BB202AA01460248FFF7F7F943B01B
:1014DC0030BD00BF4C04002000B585B08DF80C1059
:1014EC008DF80D200A230093022303AA014603481A
:1014FC00FFF7E4F905B05DF804FB00BF4C040020D5
:10150C0038B505460C46262200217820FFF7E4FF6B
:10151C00002211467820FFF7DFFF2A4600217820B1
:10152C00FFF7DAFF002211467820FFF7D5FF22469D
:10153C0000217820FFF7D0FF002211467820FFF71A
:10154C00CBFFFF2200217820FFF7C6FF2F220021BE
:10155C007820FFF7C1FF38BD38B505460C46272269
:10156C0000217820FFF7B8FF002211467820FFF702
:10157C00B3FF2A4600217820FFF7AEFF0022114668
:10158C007820FFF7A9FF224600217820FFF7A4FF5F
:10159C00002211467820FFF79FFFFF2200217820C0
:1015AC00FFF79AFF2F2200217820FFF795FF38BD17
:1015BC0008B52E2200217820FFF78EFF08BD000011
:1015CC0010B500241AE0A4F15002D2B20021782008
:1015DC00FFF782FF002211467820FFF77DFF1022D3
:1015EC0000217820FFF778FF8023064A02EBC41213
:1015FC0040217820FFF754FF0134E4B2072CE2D9E4
:10160C0010BD00BF4800002008B50020FFF7ACFE5D
:10161C00FFF7D6FF08BD000008B544F62063012291
:10162C0078215548FFF710FA002840F0A38040F6C7
:10163C00C41300E0013B002BFCD1AE22002178202A
:10164C00FFF74AFF202200217820FFF745FF1022E8
:10165C0000217820FFF740FFB02200217820FFF70F
:10166C003BFFC82200217820FFF736FF00221146ED
:10167C007820FFF731FF102200217820FFF72CFF94
:10168C00402200217820FFF727FF812200217820BB
:10169C00FFF722FFFF2200217820FFF71DFFA12278
:1016AC0000217820FFF718FFA62200217820FFF7F1
:1016BC0013FFA82200217820FFF70EFF3F22002104
:1016CC007820FFF709FFA42200217820FFF704FF00
:1016DC00D32200217820FFF7FFFE0022114678204C
:1016EC00FFF7FAFED52200217820FFF7F5FEF02255
:1016FC0000217820FFF7F0FED92200217820FFF797
:10170C00EBFE222200217820FFF7E6FEDA220021F0
:10171C007820FFF7E1FE122200217820FFF7DCFE93
:10172C00DB2200217820FFF7D7FE20220021782031
:10173C00FFF7D2FE8D2200217820FFF7CDFE142278
:10174C0000217820FFF7C8FEAF2200217820FFF798
:10175C00C3FE2E2200217820FFF7BEFE0020FFF7EB
:10176C0003FEFFF72DFF054B00221A805A80012043
:10177C00587108BD0020FCE74C04002040000020FC
:10178C0082B00E4B9A6942F001029A619A6902F09A
:10179C0001020092009ADA6942F08052DA61DB6948
:1017AC0003F080530193019B054A536823F0E063D7
:1017BC0043F00073536002B0704700BF001002404A
:1017CC000000014010B586B00023029303930493EC
:1017DC0005930268114B9A4201D006B010BD104C13
:1017EC00A36943F00803A361A36903F00803009302
:1017FC00009BC0230293122303930323059302A996
:10180C000848FEF755FDE36943F40013E361E3690F
:10181C0003F400130193019BDFE700BF0054004069
:10182C0000100240000C01407047FEE7FEE7FEE7A7
:10183C00FEE770477047704708B5FEF7B7FC08BD68
:10184C000F4B1A6842F001021A6059680D4A0A409F
:10185C005A601A6822F0847222F480321A601A6874
:10186C0022F480221A605A6822F4FE025A604FF465
:10187C001F029A60044B4FF000629A60704700BFE1
:10188C00001002400000FFF800ED00E0002103E032
:10189C000B4B5B58435004310A480B4B42189A428D
:1018AC00F6D30A4A02E0002342F8043B084B9A4262
:1018BC00F9D3FFF7C5FF00F00FF8FFF715FD7047E0
:1018CC00B841000800000020240000202400002063
:1018DC00A0040020FEE7000070B500260C4D0D4C56
:1018EC00641BA410A64209D100F022F800260A4D70
:1018FC000A4C641BA410A64205D170BD55F8043BDC
:10190C0098470136EEE755F8043B98470136F2E765
:10191C00B0410008B0410008B0410008B4410008D3
:10192C0003460244934200D1704703F8011BF9E7C8
:10193C00F8B500BFF8BC08BC9E467047F8B500BFB0
:08194C00F8BC08BC9E46704780
:101954000000000000000000000000000000000083
:101964000000000000000000000000000000000073
:101974000000000000000000000000000000000063
:1019840000000000E003E003E003E003E003E00301
:10199400E003E003C003C003C001C001C001C001F3
:1019A400C001000000000000E003E003E0030000C9
:1019B40000000000000000003C1E3C1E3C1E3C1EBB
:1019C4003C1E3C1E3C1E0000000000000000000005
:1019D4000000000000000000000000000000000003
:1019E400000000000000000000000000CE01CE0353
:1019F400DE039E039C039C07FF3FFF7F3807380FDD
:101A0400780F780F780EFFFFFFFFF01EF01CE01C2C
:101A1400E03CE03DE0390000000000000000000070
:101A2400FC03FE0FEE1FE01EE01EE01EE01EE01FA2
:101A3400E00FE007F003FC01FE01FE01FE01FE01E0
:101A4400FE01FE01FE3DFC3FF00FE001E00100005D
:101A540000000000033E07F78FE78EE79EE3BCE338
:101A6400B8E7F8E7F0F7E03FC001FF03FF07F3072B
:101A7400F30FF31EF33CF338F3787FF03FE00000FC
:101A84000000000000000000E007F80F780F781F46
:101A9400781F781F780FF00FE00F801FC37FC3FB00
:101AA400E7F3F7F1F7F0FFF07FF03EF87F7CFF3FBC
:101AB400EF1F00000000000000000000E003E0034E
:101AC400E003E003E003C003C001000000000000E5
:101AD4000000000000000000000000000000000002
:101AE40000000000000000000000000000000000F2
:101AF4003F007C00F001E001C003C00780078007BD
:101B0400800F000F000F000F000F000F000F800F59
:101B140080078007C007C003E001F0017C003F009C
:101B24000F000000007E001FC007C003E001F001A9
:101B3400F000F000F8007800780078007800780071
:101B44007800F800F000F000F001E001C003C007E5
:101B5400001F007E00780000E003C003C001CE39FE
:101B6400FF3F7F3F20037003F807780F3C1F3806C0
:101B74000000000000000000000000000000000061
:101B84000000000000000000000000000000000051
:101B94000000000000000000C001C001C001C0013D
:101BA400C001C001C001FFFFFFFFC001C001C001AF
:101BB400C001C001C00100000000000000000000DE
:101BC4000000000000000000000000000000000011
:101BD4000000000000000000000000000000000001
:101BE4000000E003E003E003E003E001E001E001C2
:101BF400C00180030000000000000000000000009D
:101C040000000000000000000000FE3FFE3F000056
:101C140000000000000000000000000000000000C0
:101C240000000000000000000000000000000000B0
:101C340000000000000000000000000000000000A0
:101C440000000000000000000000E003E003E003E7
:101C5400E003000000000000000000000F000F007F
:101C64001E001E003C003C0078007800F000F000EC
:101C7400E001E001C003C00380078007000F000FEC
:101C8400001E001E003C003C0078007800F00000BC
:101C9400F007F80F7C1F3E3E1E3C1F7C1F7C0F7814
:101CA4000F780F780F780F780F780F781F7C1F7CD0
:101CB4001E3C3E3E7C1FF80FF007000000000000B1
:101CC40000000000F000F007F03FF03FF001F001E9
:101CD400F001F001F001F001F001F001F001F00178
:101CE400F001F001F001F001F001FF3FFF3F0000BF
:101CF4000000000000000000E00FF83F7C3C3C00C6
:101D04003E003E003E003C003C007C00F800F00138
:101D1400E003C0078007000F001E003E003CFE3FAA
:101D2400FE3F00000000000000000000F00FF81F5C
:101D34007C1C3E003E003E003C003C00F800F00FDE
:101D4400F80F7C003E001E001E001E001E003E0018
:101D54007C1CF81FE01F00000000000000000000D1
:101D64007800F800F800F801F803F807F807780F8E
:101D7400781E781E783C78787878FFFFFFFF78002B
:101D840078007800780078007800000000000000F7
:101D940000000000FC1FFC1FFC1F001E001E001E94
:101DA400001E001EE01FF81FFC007C003E003E00E9
:101DB4001E003E003E003C007C1CF81FE01F00009B
:101DC4000000000000000000FC01FE078E0F001F51
:101DD400001E003E003C003CF83DFC3F3E7F1F7E61
:101DE4000F3C0F3C0F3C0F3C0F3E1F1E3E1FFC0FD1
:101DF400F00300000000000000000000FF3FFF3F70
:101E0400FF3F0F001E001E003C0038007800F00069
:101E1400F000E001E001C003C0038007800F800FE1
:101E2400000F001F001F0000000000000000000061
:101E3400F807FC0F3E1F1E1E1E3E1E3E1E1E3C1FAC
:101E4400F80FF007F80FFC1E3E3E1F3C1F7C0F7C72
:101E54000F7C1F3C3E3FFC1FF00700000000000009
:101E640000000000F007F80F7C1E3E3C1E3C1F7C67
:101E74001F7C1F7C1F7C1F3C3F3EFF1FEF071F0082
:101E84001E001E003E003C00F838F03FE01F00003A
:101E9400000000000000000000000000000000003E
:101EA40000000000E003E003E003E00300000000A2
:101EB40000000000000000000000E003E003E00375
:101EC400E00300000000000000000000000000002B
:101ED4000000000000000000E003E003E003E00372
:101EE4000000000000000000000000000000E0030B
:101EF400E003E003E003E001E001E001C00380034C
:101F040000000000000000000000000003000F00BB
:101F14003F00FC00F003C00F003F00FE003FC00F75
:101F2400F003FC003F000F0003000000000000006D
:101F3400000000000000000000000000000000009D
:101F44000000000000000000FFFFFFFF0000000091
:101F54000000FFFFFFFF0000000000000000000081
:101F6400000000000000000000000000000000006D
:101F74000000000000E000F8007E801FE007F80188
:101F84007E001F007E00F801E007801F007E00F83D
:101F940000E000000000000000000000F01FFC3F13
:101FA4003E381F381F381E001E003C007800F00029
:101FB400E001C003C003C007C00700000000000028
:101FC400C007C007C00700000000000000000000B8
:101FD400F803FE0F1E1F0F3E7F3CFF78EF79C77397
:101FE400C7F38FF38FF38FF39FF39FF3FF73FF7B9D
:101FF400F779003C1C1FFC0FF803000000000000F0
:1020040000000000000000000000E003E003F0070F
:10201400F007F007780F780F7C0E3C1E3C1E3E3C08
:10202400FE3FFF3F1F780F780FF007F007F0000026
:102034000000000000000000000000000000F83F65
:10204400FC3F3E3C1E3C1E3C1E3C3E3C7C3CF03F68
:10205400F83F7E3C1F3C1F3C0F3C0F3C1F3CFE3FA7
:10206400F83F000000000000000000000000000035
:102074000000FF01FF07871F003E003C007C007842
:102084000078007800780078007C007C003E003FF7
:10209400831FFF07FF010000000000000000000094
:1020A400000000000000F07FFC7F7E781F781F781E
:1020B4000F780F780F780F780F780F780F780F78E4
:1020C4001F781E787E78F87FE07F00000000000013
:1020D40000000000000000000000FF3FFF3F003E42
:1020E400003E003E003E003E003EFE3FFE3F003EFE
:1020F400003E003E003E003E003EFF3FFF3F00002A
:102104000000000000000000000000000000FF1FAD
:10211400FF1F001E001E001E001E001E001EFF1FCB
:10212400FF1F001E001E001E001E001E001E001EBB
:10213400001E00000000000000000000000000007D
:102144000000FE03FF0F871F003E007C007C007828
:1021540000F800F87FF87FF80F780F7C0F7C0F3EB3
:102164008F1FFF0FFE0300000000000000000000AE
:102174000000000000001F7C1F7C1F7C1F7C1F7C54
:102184001F7C1F7C1F7CFF7FFF7F1F7C1F7C1F7CAD
:102194001F7C1F7C1F7C1F7C1F7C00000000000034
:1021A40000000000000000000000FF3FFF3FE003CC
:1021B400E003E003E003E003E003E003E003E00303
:1021C400E003E003E003E003E003FF3FFF3F000020
:1021D4000000000000000000000000000000FC1FE0
:1021E400FC1F7C007C007C007C007C007C007C006C
:1021F4007C007C007C007C0078007800F838F03F9C
:10220400C03F0000000000000000000000000000CB
:1022140000001F3C1E3C3C3C783CF03CE03DE03F71
:10222400C03F803FC03FE03FF03DF03C783C7C3C09
:102234003E3C1F3C0F3C000000000000000000007A
:10224400000000000000003E003E003E003E003E54
:10225400003E003E003E003E003E003E003E003E8A
:10226400003E003E003EFF3FFF3F00000000000034
:10227400000000000000000000001FF81FFC1FFC0D
:102284003FFE3FFE3FFE7FFF77FF77FFF7F7E7F75D
:10229400E7F3E7F3C7F307F007F007F007F00000F0
:1022A40000000000000000000000000000000F7C9F
:1022B4000F7C0F7E0F7F0F7F8F7F8F7FCF7FEF7B12
:1022C400EF79FF79FF78FF787F783F783F781F7840
:1022D4001F78000000000000000000000000000063
:1022E4000000F007FC1F3E3E1F7C0F780F780FF8AC
:1022F4000FF80FF80FF80FF80FF80F780F781F7C0E
:102304003E3EFC1FF007000000000000000000003B
:10231400000000000000FC3FFF3F1F3E0F3E0F3E49
:102324000F3E0F3E1F3E3F3EFC3FF03F003E003E4F
:10233400003E003E003E003E003E00000000000063
:1023440000000000000000000000F007FC1F3E3EFB
:102354001F7C0F780F780FF80FF80FF80FF80FF8AD
:102364000FF80F780F781F7C3E3EFC1FF8077C00A7
:102374003F000F0003000000000000000000F03FD9
:10238400FC3F7E3C3E3C1E3C1E3C3E3C3C3CFC3CFC
:10239400F03FE03FF03DF83C7C3C3E3C1E3C1F3CA3
:1023A4000F3C0000000000000000000000000000DE
:1023B4000000FC07FE1F0E3E003C003C003C003EBB
:1023C400C01FF80FFE037F001F000F000F001F2027
:1023D4003E3CFC3FF01F0000000000000000000035
:1023E400000000000000FFFFFFFFE003E003E00344
:1023F400E003E003E003E003E003E003E003E003C1
:10240400E003E003E003E003E00300000000000059
:10241400000000000000000000000F7C0F7C0F7C17
:102424000F7C0F7C0F7C0F7C0F7C0F7C0F7C0F7C50
:102434000F7C0F7C1E3C1E3C3E3EFC1FF007000040
:10244400000000000000000000000000000007F091
:1024540007F007F80F780F7C1E3C1E3C1E3E3C1E06
:102464003C1F781F780FF80FF007F007F007E00320
:10247400E003000000000000000000000000000075
:10248400000003E003F003F007F0E7F3E7F3E7F3FA
:10249400E773F77BF77FFF7F7F7F7F7F7E7F7E3FC2
:1024A4003E3E3E3E3E3E00000000000000000000B4
:1024B40000000000000007F80F7C1E3E3E3E3C1F5B
:1024C400F80FF007E007E003E003F007F80F7C0FD4
:1024D4007C1E3E3C1F780F780FF0000000000000C7
:1024E4000000000000000000000007F807780F7CDF
:1024F4001E3C1E3E3C1F780FF80FF007E003E0037C
:10250400E003E003E003E003E003E003E003000092
:102514000000000000000000000000000000FF7F39
:10252400FF7F0F001F003E007C00F800F000E00178
:10253400E003C007800F000F001E003E007CFF7FF9
:10254400FF7F00000000000000000000FF0780077C
:10255400800780078007800780078007800780073F
:10256400800780078007800780078007800780072F
:1025740080078007800780078007FF07FF070000A8
:1025840000780078003C003C001E001E000F000F85
:1025940080078007C003C003E001E001F000F00001
:1025A400780078003C003C001E001E000F000F0065
:1025B40007000000F07FF000F000F000F000F000F1
:1025C400F000F000F000F000F000F000F000F00087
:1025D400F000F000F000F000F000F000F000F00077
:1025E400F000F07FF07F0000C000C001C001E003F4
:1025F400E003F007F0077807780F380F3C1E3C1E05
:102604001E3C1E3C0F380F780778000000000000C5
:1026140000000000000000000000000000000000B6
:1026240000000000000000000000000000000000A6
:102634000000000000000000000000000000000096
:10264400000000000000FFFFFFFF0000000000008A
:10265400F000000000000000000000000000000086
:102664000000000000000000000000000000000066
:102674000000000000000000000000000000000056
:102684000000000000000000000000000000000046
:10269400F80FFC3F7C3C3E003E003E00FE07FE1F60
:1026A4003E3E3E7C3E783E7C7E7CFF3FCF1F00005A
:1026B4000000000000000000003C003C003C003C26
:1026C400003C003CF83DFE3F3E3F1F3E0F3C0F3CAC
:1026D4000F3C0F3C0F3C0F3C1F3C1E3C3E3FFC3F5D
:1026E400F03B0000000000000000000000000000BB
:1026F4000000000000000000FE03FF0F871F003EE3
:10270400003E003C007C007C007C003C003E003E1F
:10271400871FFF0FFE030000000000000000000000
:102724001F001F001F001F001F001F00FF07FF1FC7
:102734003F3E1F3C1F7C1F7C1F7C1F781F781F7C23
:102744001F7C3F3C7F3EFF1FDF0F000000000000A6
:102754000000000000000000000000000000000075
:10276400F803FC0F3E1F1E3E1F3C1F7CFF7FFF7FB4
:10277400007C007C003C003E071FFF0FFE030000AE
:102784000000000000000000FF01E103C003C007D7
:10279400C007C007FF7FFF7FC007C007C007C0078F
:1027A400C007C007C007C007C007C007C007C007ED
:1027B400C00700000000000000000000000000004E
:1027C4000000000000000000EF07FF1F7F3E1F3CD9
:1027D4001F7C1F7C1F781F781F781F7C1F7C3F3C49
:1027E4007F3EFF1FDF0F1E001E001E007C38F83FD7
:1027F400003C003C003C003C003C003CFC3DFE3FF7
:102804009E3F1F3F1F3E1F3C1F3C1F3C1F3C1F3C65
:102814001F3C1F3C1F3C1F3C1F3C000000000000ED
:1028240000000000F001F0010000000000000000C2
:10283400E07FE07FE001E001E001E001E001E00190
:10284400E001E001E001E001E001E001E00100005D
:102854000000000000000000F800F8000000000084
:1028640000000000F83FF83FF800F800F800F80016
:10287400F800F800F800F800F800F800F800F80094
:10288400F800F800F800F000F071E07F003C003C34
:10289400003C003C003C003C1F3C3E3C7C3CF83C83
:1028A400F03DE03DC03FC03FE03FF03DF83C7C3CA4
:1028B4003E3C1F3C1F3C00000000000000000000E4
:1028C400F07FF001F001F001F001F001F001F001FE
:1028D400F001F001F001F001F001F001F001F0016C
:1028E400F001F001F001F001F0010000000000002F
:1028F40000000000000000000000000000000000D4
:102904009EF7FFFFFFFFFFFFE7FBE7F9C7F1C7F102
:10291400C7F1C7F1C7F1C7F1C7F1C7F1C7F10000AB
:1029240000000000000000000000000000000000A3
:1029340000000000FC3DFE3F9E3F1F3F1F3E1F3C2A
:102944001F3C1F3C1F3C1F3C1F3C1F3C1F3C1F3CAB
:102954001F3C000000000000000000000000000018
:102964000000000000000000F007FC1F3E3E1F3C7A
:102974001F7C0F780F780F780F780F781F7C1F3C1F
:102984003E3EFC1FF00700000000000000000000B5
:10299400000000000000000000000000F83DFE3FC1
:1029A4003E3F1F3E0F3C0F3C0F3C0F3C0F3C0F3C87
:1029B4001F3C1E3E3E3FFC3FF83F003C003C003CB9
:1029C400003C003C0000000000000000000000008B
:1029D400EE07FE1F7E3E1E3C1E7C1E781E781E786F
:1029E4001E781E781E7C3E7C7E3EFE1FDE0F1E007F
:1029F4001E001E001E001E0000000000000000005B
:102A0400000000007F1FFF1FE71FC71F871F001F55
:102A1400001F001F001F001F001F001F001F001FBA
:102A2400001F000000000000000000000000000083
:102A34000000000000000000FC07FE1F0E1E003E08
:102A4400003E003FE01FFC07FE003E001E001E008B
:102A54003E3CFC3FF01F00000000000000000000AE
:102A6400000000000000800780078007FF7FFF7FD1
:102A7400800780078007800780078007800780071A
:102A840080078007C007FF03FF010000000000006B
:102A94000000000000000000000000000000000032
:102AA4001E3C1E3C1E3C1E3C1E3C1E3C1E3C1E3C52
:102AB4001E3C1E3C3E3C7E3CFE3EFE1FDE0F0000E4
:102AC4000000000000000000000000000000000002
:102AD4000000000007F00F780F781E3C1E3C1E3EDD
:102AE4003C1E3C1E780F780FF00FF007F007E00350
:102AF400E0030000000000000000000000000000EF
:102B0400000000000000000003F0E3F1E3F3E7F34A
:102B1400F7F3F7F3F77F777F7F7F7F7F7F7F3E3EFB
:102B24003E3E3E3E3E3E000000000000000000002D
:102B34000000000000000000000000000F7C1E3EAA
:102B44003C3E3C1FF80FF007F007E003F007F807DE
:102B5400F80F7C1E3E3E1F3C1F7800000000000062
:102B64000000000000000000000000000000000061
:102B740007F80F780F7C1E3C1E3C3C1E3C1E3C1F7D
:102B8400780FF80FF007F007E003E003C003C00379
:102B9400C0038007800F007F0000000000000000D9
:102BA40000000000FF3FFF3F1F003E007C00F800D4
:102BB400F001E003C007800F001F001E003CFF7FF0
:102BC400FF7F00000000000000000000FE01E003A1
:102BD400C003C003C003C003E001E001E001C00181
:102BE400C003803F803FC003C001E001E001E00179
:102BF400C003C003C003C003E003FE017E00000065
:102C0400C001C001C001C001C001C001C001C001B8
:102C1400C001C001C001C001C001C001C001C001A8
:102C2400C001C001C001C001C001C001C001C00198
:102C3400C0010000C03FE003E001E001E001E00169
:102C4400C001C003C003C001E001FE00FE00E001BA
:102C5400C001C003C003C001E001E001E001E001E4
:102C6400E003C03F003F000000000000000000003F
:102C74000000000000000000000000000000073F0A
:102C8400C77FE773FFF17EF0000000000000000042
:102C94000000000000000000000000000000000030
:102CA4000000000000000000000000000000000020
:102CB4000000000000000000000000000000000010
:102CC4000000000C000C000C000C000C000C000CAC
:102CD400000C000C000C000C0000000C000C0000A8
:102CE400000000000000001B001B001B001B001B59
:102CF40000000000000000000000000000000000D0
:102D040000000000000000000000801980198019F4
:102D14008019C07FC07F80190033C07FC07F00331B
:102D24000033003300330000000000000000001EE8
:102D3400003F807580650074003C001E000780051C
:102D4400806580658075003F001E0004000400005B
:102D54000000007000D840D8C0D880D900730006A5
:102D6400000C801BC036C066C046C006800300004D
:102D7400000000000000001E003F00330033003359
:102D8400001E000CC03CC066806380618063C03E4E
:102D9400801C0000000000000000000C000C000C6F
:102DA400000C000C00000000000000000000000007
:102DB400000000000000000000000000800000018E
:102DC4000003000600060004000C000C000C000CBC
:102DD400000C000C00040006000600030001800043
:102DE400002000100018000C000C0004000600066F
:102DF40000060006000600060004000C000C001883
:102E0400001000200000000C002D003F001E0033C5
:102E140000000000000000000000000000000000AE
:102E24000000000000000000000000000000000C92
:102E3400000C000C000CC0FFC0FF000C000C000CC8
:102E4400000C000000000000000000000000000072
:102E5400000000000000000000000000000000006E
:102E6400000000000000000C000C00040004000836
:102E7400000000000000000000000000000000004E
:102E84000000001E001E0000000000000000000002
:102E9400000000000000000000000000000000002E
:102EA4000000000000000000000000000000000C12
:102EB400000C0000000000000000000300030003F9
:102EC4000006000600060006000C000C000C000CB6
:102ED4000018001800180000000000000000001E88
:102EE400003F0033806180618061806D806D80610E
:102EF400806180610033003F001E0000000000007C
:102F040000000006000E001E003600260006000623
:102F14000006000600060006000600060006000083
:102F2400000000000000001E003F8073806180618B
:102F3400800100030006000C001800300060807F50
:102F4400807F0000000000000000001C003E0063C1
:102F540000630003000E000E000380018001806105
:102F64008073003F001E0000000000000000000607
:102F7400000E000E001E001E00160036003600660D
:102F8400807F807F0006000600060000000000002D
:102F94000000007F007F006000600060006E007F22
:102FA40080638001800180618073003F001E000007
:102FB400000000000000001E003F803380610060BC
:102FC400006E007F80738061806180618033003F88
:102FD400001E0000000000000000807F807F800150
:102FE4000003000300060006000C000C000C00089F
:102FF4000018001800180000000000000000001E67
:10300400003F8063806180610021001E003F806179
:10301400806180618061003F001E000000000000AC
:103024000000001E003F0073806180618061807336
:10303400803F801D800180610073003F001E0000FE
:103044000000000000000000000000000000000C70
:10305400000C000000000000000000000000000C54
:10306400000C000000000000000000000000000050
:1030740000000000000C000C000000000000000034
:103084000000000C000C0004000400080000000014
:103094000000000080008003000E0038006000384B
:1030A400000E80038000000000000000000000000B
:1030B40000000000000000000000807F807F00000E
:1030C4000000807F807F00000000000000000000FE
:1030D400000000000000000000000000004000703C
:1030E400001C000780010007001C00700040000065
:1030F40000000000000000000000001F803FC071BD
:10310400C060C000C00180030007000E000C000C6A
:103114000000000C000C0000000000000000001E75
:10312400003F803180718063806F806D806D806F1F
:10313400806700600032003E001C000000000000B8
:103144000000000E000E001B001B001B001B803142
:103154008031803F803F8031C060C060C06000002B
:10316400000000000000007C007E00630063006338
:103174000063007E007E0063806180618063007F65
:10318400007E0000000000000000001E003F8031AF
:103194008061006000600060006000600060806129
:1031A4008031003F001E0000000000000000007C91
:1031B400007F0063806380618061806180618061E1
:1031C400806100630063007E007C0000000000005A
:1031D4000000807F807F0060006000600060007FEE
:1031E400007F0060006000600060807F807F0000DE
:1031F400000000000000807F807F006000600060AD
:103204000060007F007F006000600060006000607C
:1032140000600000000000000000001E003F80313C
:103224008061006000600060806380638061806111
:103234008031803F001E000000000000000080611B
:1032440080618061806180618061807F807F806136
:103254008061806180618061806100000000000005
:103264000000003F003F000C000C000C000C000CA0
:10327400000C000C000C000C000C003F003F000090
:1032840000000000000080018001800180018001B5
:103294008001800180018001806180618073003F32
:1032A400001E0000000000000000C0608061006398
:1032B40000660066006C0078007C006600660063AF
:1032C40080618061C06000000000000000000060B8
:1032D40000600060006000600060006000600060EA
:1032E400006000600060807F807F000000000000BC
:1032F4000000C071C071C07BC07AC06AC06AC06E71
:10330400C064C060C060C060C060C060C0600000D5
:1033140000000000000080718071807980798079DC
:10332400806D806D806D8065806780678067806355
:1033340080630000000000000000001E003F003316
:103344008061806180618061806180618061806171
:103354000033003F001E0000000000000000007E5B
:10336400007F80638061806180618063007F007E74
:103374000060006000600060006000000000000069
:103384000000001E003F0033806180618061806125
:1033940080618061806580670033803F401E00004B
:1033A400000000000000007E007F80638061806177
:1033B4008063007F007E006600630063806180613B
:1033C400C0600000000000000000000E001F8031FB
:1033D400803100300038001E000780038061806166
:1033E4008031003F001E0000000000000000C0FF0C
:1033F400C0FF000C000C000C000C000C000C000CB6
:10340400000C000C000C000C000C0000000000007C
:103414000000806180618061806180618061806181
:1034240080618061806180618073003F001E0000C4
:10343400000000000000C060C060C06080318031C6
:103444008031001B001B001B001B000E000E000E31
:1034540000040000000000000000C0C0C0C0C0C0E4
:10346400C0C0C0C0C0CC804C804C805E80528052B2
:103474008073806180610000000000000000C0C013
:10348400806080610033003B001E000C000C001EB5
:10349400001F003B80718061C0C00000000000007C
:1034A4000000C0C08061806100330033001E001E34
:1034B400000C000C000C000C000C000C000C0000B4
:1034C400000000000000803F803F800100030003F3
:1034D4000006000C000C0018001800300060807F0B
:1034E400807F000000000000000F000F000C000CA3
:1034F400000C000C000C000C000C000C000C000C68
:10350400000C000C000C000C000F000F0000001851
:1035140000180018000C000C000C000C000600063B
:103524000006000600030003000300000000000082
:10353400001E001E00060006000600060006000627
:103544000006000600060006000600060006000647
:10355400001E001E0000000C000C001E00120033B0
:103564000033806180610000000000000000000062
:103574000000000000000000000000000000000047
:103584000000000000000000000000000000000037
:103594000000000000000000E0FF00000000003810
:1035A4000018000C000000000000000000000000F3
:1035B4000000000000000000000000000000000007
:1035C40000000000000000000000001F803F806138
:1035D4008001801F803F80618063807FC03800004D
:1035E4000000000000000060006000600060006EE9
:1035F400007F807380618061806180618073007F5F
:10360400006E000000000000000000000000000048
:103614000000001E003F80738061006000608061D4
:103624008073003F001E00000000000000008001C5
:10363400800180018001801D803F807380618061F2
:10364400806180618073803F801D00000000000065
:1036540000000000000000000000001E003F007396
:103664008061807F807F00608071003F001E0000C9
:10367400000000000000C007C00F000C000C807F99
:10368400807F000C000C000C000C000C000C000CE3
:10369400000C00000000000000000000000000001A
:1036A400801D803F80738061806180618061807350
:1036B400803F801D80018063007F003E0000006029
:1036C400006000600060006F807F807180618061B5
:1036D4008061806180618061806100000000000081
:1036E40000000006000600000000003E003E000648
:1036F400000600060006000600060006000600009C
:10370400000000000006000600000000003E003E2D
:103714000006000600060006000600060006000675
:1037240000060046007E003C00000060006000606F
:103734000060806100630066006C007C00760063BA
:1037440000638061C0600000000000000000003ED3
:10375400003E0006000600060006000600060006FD
:103764000006000600060006000600000000000037
:103774000000000000000000000080DDC0FFC0CE9B
:10378400C0CCC0CCC0CCC0CCC0CCC0CCC0CC000061
:103794000000000000000000000000000000006FB6
:1037A400807F8071806180618061806180618061DF
:1037B4008061000000000000000000000000000024
:1037C4000000001E003F8073806180618061806121
:1037D4008073003F001E0000000000000000000095
:1037E40000000000006E007F807380618061806152
:1037F40080618073007F006E006000600060006084
:103804000000000000000000801D803F8073806184
:103814008061806180618073803F801D80018001B0
:10382400800180010000000000000000000000672B
:10383400803F00390030003000300030003000306C
:103844000030000000000000000000000000000044
:103854000000001E803F80610060007F803F800187
:103864008061007F001E00000000000000000000D6
:10387400000800180018007F007F001800180018C6
:10388400001800180018801F800F000000000000BE
:103894000000000000000000000080618061806181
:1038A40080618061806180618063807F803D0000F1
:1038B4000000000000000000000000000000C060E4
:1038C400803180318031001B001B001B000E000E74
:1038D40000060000000000000000000000000000DE
:1038E400000080DD80DD80DD005500550055007747
:1038F4000077002200220000000000000000000009
:10390400000000000000806100330033001E000C42
:10391400000C001E00330033806100000000000032
:1039240000000000000000008061806180310033ED
:103934000033001B001B001B000E000E000E001CB9
:10394400007C007000000000000000000000C07F48
:10395400C07F800100030006000C00180030C07F07
:10396400C07F0000000000008003800700060006FE
:10397400000600060006000E001C001C000E0006D7
:103984000006000600060006800780030006000605
:1039940000060006000600060006000600060006F3
:1039A40000060006000600060006000600060006E3
:1039B4000038003C000C000C000C000C000C000E45
:1039C40000070007000E000C000C000C000C000C9B
:1039D400003C00380000000000000000000000006F
:1039E40000008038807F00470000000000000000D5
:1039F40000000000000000000000000000000000C3
:103A04000000000000000000000000000010001092
:103A14000010001000100010000000100000000052
:103A2400002800280028000000000000000000001A
:103A34000000000000240024007C00240048007CD6
:103A440000480048000000000038005400500038CE
:103A540000140054005400380010000000200054EA
:103A64000058003000280054001400080000000032
:103A740000100028002800100034004800480034DA
:103A84000000000000100010001000000000000002
:103A940000000000000000000008001000200020CA
:103AA400002000200020002000100008002000104A
:103AB40000080008000800080008000800100020A2
:103AC4000010003800100028000000000000000072
:103AD400000000000000000000100010007C001036
:103AE40000100000000000000000000000000000C2
:103AF4000000000000000010001000100000000092
:103B04000000000000000038000000000000000079
:103B14000000000000000000000000000000001091
:103B24000000000000080008001000100010001041
:103B3400002000200000000000380044004400542D
:103B4400004400440044003800000000001000302D
:103B540000500010001000100010001000000000C1
:103B64000038004400440004000800100020007CD9
:103B740000000000003800440004001800040004A1
:103B84000044003800000000000800180028002845
:103B94000048007C0008000800000000007C004091
:103BA40000400078000400040044003800000000D5
:103BB40000380044004000780044004400440038C9
:103BC40000000000007C0004000800100010002029
:103BD40000200020000000000038004400440038A9
:103BE4000044004400440038000000000038004451
:103BF40000440044003C000400440038000000007D
:103C04000000000000100000000000000000001090
:103C14000000000000000000000000100000000090
:103C2400000000100010001000000000000C003024
:103C340000400030000C0000000000000000000004
:103C44000000007C0000007C000000000000000078
:103C5400000000000060001800040018006000006C
:103C640000000000003800440004000800100010A8
:103C7400000000100000000000380044004C005414
:103C8400005C0040004000380000000000100028E4
:103C9400002800280028007C0044004400000000A4
:103CA4000078004400440078004400440044007854
:103CB4000000000000380044004000400040004084
:103CC4000044003800000000007000480044004434
:103CD400004400440048007000000000007C0040E4
:103CE4000040007C004000400040007C00000000D8
:103CF400007C00400040007800400040004000404C
:103D0400000000000038004400400040005C004413
:103D14000044003800000000004400440044007CDB
:103D24000044004400440044000000000038001037
:103D340000100010001000100010003800000000F7
:103D440000040004000400040004000400440038DB
:103D5400000000000044004800500060005000488B
:103D640000480044000000000040004000400040C3
:103D7400004000400040007C000000000044006C53
:103D8400006C00540044004400440044000000005F
:103D940000440064006400540054004C004C00448F
:103DA4000000000000380044004400440044004483
:103DB400004400380000000000780044004400443F
:103DC400007800400040004000000000003800443B
:103DD400004400440044004400540038000400003F
:103DE400007800440044004400780048004800443F
:103DF40000000000003800440040003000080004C7
:103E04000044003800000000007C00100010001086
:103E140000100010001000100000000000440044D6
:103E24000044004400440044004400380000000002
:103E3400004400440044002800280028001000101A
:103E44000000000000440044005400540054006C7E
:103E5400002800280000000000440028002800106A
:103E64000010002800280044000000000044004422
:103E740000280028001000100010001000000000AE
:103E8400007C000400080010001000200040007CAA
:103E940000000000001800100010001000100010B6
:103EA4000010001000100018002000200010001066
:103EB400001000100008000800000000003000108E
:103EC400001000100010001000100010001000304E
:103ED400001000280028004400000000000000003A
:103EE40000000000000000000000000000000000CE
:103EF40000000000000000FE002000100000000090
:103F040000000000000000000000000000000000AD
:103F140000380044003C0044004C00340000000021
:103F2400004000400058006400440044006400580D
:103F34000000000000000000003800440040004081
:103F44000044003800000000000400040034004C69
:103F540000440044004C0034000000000000000055
:103F640000380044007C0040004400380000000099
:103F7400000C0010007C0010001000100010001055
:103F840000000000000000000034004C0044004425
:103F9400004C0034000400780040004000580064E5
:103FA40000440044004400440000000000100000ED
:103FB400007000100010001000100010000000003D
:103FC400001000000070001000100010001000101D
:103FD400001000E000400040004800500060005025
:103FE40000480044000000000070001000100010A1
:103FF400001000100010001000000000000000007D
:104004000078005400540054005400540000000090
:1040140000000000005800640044004400440044D0
:104024000000000000000000003800440044004488
:104034000044003800000000000000000058006444
:1040440000440044006400580040004000000000A8
:104054000034004C00440044004C003400040004CC
:104064000000000000580064004000400040004090
:104074000000000000000000003800440030000888
:1040840000440038000000000020002000780020D8
:1040940000200020002000180000000000000000A4
:1040A4000044004400440044004C0034000000007C
:1040B40000000000004400440028002800280010EC
:1040C4000000000000000000005400540054006C84
:1040D4000028002800000000000000000044002820
:1040E4000010001000280044000000000000000040
:1040F4000044004400280028001000100010006054
:1041040000000000007C0008001000200040007C3B
:104114000000000000180010001000100020002013
:104124000010001000100018001000100010001003
:1041340000100010001000100010001000300010DB
:1041440000100010000800080010001000100030DB
:104154000000000000000074004C0000000000009B
:104164000000000000000000000000000102030441
:104174000607080900000000010203040203040505
:10418400060708090A0B0C0D0E0F101000000000A2
:1041940057656C6C636F6D6520746F002020506FE1
:0C41A4006C7954656368203A2900000023
:0441B00031010008D1
:0441B4000D010008F1
:1041B8000100000010000000101A00005419000847
:1041C8000B120000A02C0008070A0000FC390008A8
:0441D80000A24A04F3
:04000005080018993E
:00000001FF
